:020000040040BA
:10000000B8120020E1044000DD044000DD0440009F
:10001000DD044000DD044000DD044000000000007D
:10002000000000000000000000000000DD044000AF
:10003000DD04400000000000DD044000DD0440005D
:10004000DD044000DD044000DD044000DD0440002C
:10005000DD044000DD044000DD044000000000003D
:10006000DD044000DD04400000000000DD0440002D
:10007000DD04400000000000DD044000DD0440001D
:100080000000000000000000DD044000DD0440002E
:10009000DD044000DD044000DD044000DD044000DC
:1000A000DD044000DD04400000000000000000000E
:1000B00000000000DD044000DD044000DD044000DD
:1000C000DD044000DD044000DD04400010B5054CB7
:1000D000237833B9044B13B10448AFF300800123F4
:1000E000237010BD1001002000000000B80E400079
:1000F00008B5034B1BB103490348AFF3008008BDAB
:100100000000000014010020B80E400010B50A4B9A
:1001100004469847094B98472046094B9847094B96
:1001200098472046084B9847084B224610217220DA
:100130009847002010BD00BF090E4000290740006D
:10014000010E4000090740000B0E4000190340005B
:10015000F8B511F004040F4615461E4608D019786C
:100160004C1CE4B294421DD8601A18440F4B9847B7
:10017000BA0708D51034E4B2A54213D3A4F1100095
:100180000B4B30449847FB070AD51034E4B2A54224
:1001900008D3A4F11000074B10213044984710B940
:1001A000AC4201D00420F8BD0020FCE70D0E400059
:1001B000F90D40000D0140001FB5174B6A4603F1D1
:1001C0001006154618685968144603C40833B3422C
:1001D0002246F7D1114B124C9847124B9847124BBD
:1001E0009847124B9847124B284698476820A047DB
:1001F0006520A0476C20A0476C20A0476F20A04737
:100200000A20A0470B4B0C4C98470C4A0C4B102172
:1002100001209847A047FDE7840E40007505400087
:10022000A906400045064000E9064000F50D4000E3
:10023000F90D4000F1024000E1034000510140008F
:10024000B10240000346014400208B4200D17047B8
:1002500013F8012B5040082210F0800F4FEA4000A5
:1002600018BF80F04D00013AC0B2F5D1EDE730B5CE
:100270000022044601238B4201D3002030BD14F834
:10028000015F15B99D1A85541A460133DBB2F2E7B6
:1002900010B502780024034604701046884200D24C
:1002A00002B910BD1A5C1C541044C0B2F6E700003D
:1002B000F8B50C4D2B680F2B04DD61200A4B9847D5
:1002C0000120F8BDFF2901D96220F7E7074F0C2470
:1002D0005C433E1901333855C6E901122B600020FA
:1002E000EFE700BFEC010020A90640002C01002030
:1002F00010B5064C064A00217620A0472346054A41
:10030000BDE8104000217720184700BFB10240002F
:1003100081034000A1034000F0B5C1B00C460025A8
:100320001146134B8DF8010022468DF802408DF8DE
:1003300000500DF103009847A11C0E4B0E4FC9B29F
:100340000DF101009847261D0DEB0403611DD870C7
:10035000C9B20DF80650094B684698476C4614F828
:10036000010B0135B847AE42F9DA41B0F0BD00BF2C
:10037000590E400045024000A90640006F024000AF
:1003800007B503238DF807300DF10702034B012158
:1003900072209847002003B05DF804FB1903400069
:1003A00030B50C4B0C48197885B000220C24D3B220
:1003B0008B4202F1010206DB084B6A467220984725
:1003C000002005B030BD04AD1D446343C35C05F897
:1003D000103CECE7EC0100202C0100201903400048
:1003E0002DE9F047374FC2B0002502AE8DF8075017
:1003F0003446BA46B847C0B206F8010B58B90523CF
:100400008DF80730304B0DF1070201216520984728
:1004100042B0BDE8F0870135042DEBD12B4E2946C3
:100420002046B0472A4B61781A6807462948B046EB
:1004300000230C265FFA83F9914502DB08D10123E2
:10044000DEE706FB09FC013310F80CC08C45F1D146
:10045000E3780533BB4202DA0423D1E73546D047BF
:10046000C0B260550028CAD0E3786E1C0433B34292
:10047000F4DAD047C0B2A0550028EDD1C7F1010190
:1004800051FA86F1C9B25FFA86FAE019C047AAF1BB
:100490000201114BC9B20DF109009847635D834217
:1004A00001D00223ACE70B4BA17860780C2202FB51
:1004B00009390DEB0203D9F80850E278A8478DF806
:1004C00007009FE7C5064000190340009102400065
:1004D000EC0100202C01002045024000FEE7000056
:1004E00019491A48814210B520D9194BDA1C121A41
:1004F00022F00302C41EA34238BF0022154B9847C6
:1005000000BF154B1548DA1C121AC11E22F0030257
:10051000994288BF0022124B00219847114B124A82
:100520009A60124B9847124B9847FEE7E8D2084B67
:100530000A1F181A1044C1F10401C842E0D050F853
:10054000042943F8042DF8E7B80E4000000000200D
:1005500010010020590E4000B802002010010020B8
:10056000750E400000ED00E000004000110E40005C
:10057000B9014000244B4FF4004270B500205A6589
:10058000224D234C234EA8470120A8470520A84709
:10059000214B002098472148214B9847214B0020B0
:1005A00098474FF060511020A0471F4B3360202028
:1005B0001E4B98471E4B1F4A9A629A6E9107FCD5B4
:1005C00012221A639A6E1207FCD51B4B98471B4BDD
:1005D000002098471A4B1021002098474FF0805177
:1005E0000620A0474FF060510E20A047336823F04B
:1005F000806333600B20A84723464FF06051BDE86D
:1006000070400F20184700BF00140E40F90A400048
:1006100099084000000A0E40790B4000000E2707A1
:10062000110A4000750A400000050004B50A4000A8
:1006300000040E40083F092045094000690B4000B6
:10064000390B40001FB5104B104C4FF41642CDE94A
:1006500001324FF40063039308200D4B984701A922
:100660000C4B2046984720460B4B98470B4B204697
:1006700098470B4C0B490920A0474FF000610A2016
:10068000A04704B010BD00BFE070720000060E402D
:10069000F90A400049074000830740007D074000F9
:1006A000990840000100000870B5044E044D04464E
:1006B00021463046A8470028FAD170BD00060E40FA
:1006C0008907400037B5064D064C0DF10701284655
:1006D000A0470028F9D19DF8070003B030BD00BF46
:1006E00000060E409707400010B5054B0B209847B9
:1006F000BDE81040034B4FF040510720184700BFA2
:10070000F90A40009908400010B5054B07209847AA
:10071000BDE81040034B4FF040510720184700BF81
:100720007F0840009908400010B5054B0720984706
:10073000BDE81040034B4FF060510720184700BF41
:100740006508400099084000AC2310B50360D1E96A
:100750000032B3FBF2F31B095C1E4FF6FE729442AB
:100760000AD803628B68436040F20223C0F820314C
:1007700050230360002010BD0120FCE740230360EC
:10078000704710230360704743699B0746BFC161F0
:100790000020012070474369DB0743BF83690B706A
:1007A000002001207047B1F1C05F426426D007D815
:1007B000B1F1006F12D0B1F1805F1CD061B9704708
:1007C000B1F1005F23D007D3B1F1405F05D021F034
:1007D0008051B1F1205F00D042607047016F036F1C
:1007E0000B4023EA02030367416F436F0B4023EA88
:1007F00002034367F0E7036F1343F4E7016F036FEE
:100800000B4023EA02030367436F1343F1E7036FCF
:100810001343F8E7D30741644CBF4166016612F009
:100820000A0F14BF01624162930704D5C0F880101B
:10083000416101607047130748BFC0F88410F7E7B3
:1008400010B5029C41643CB141663BB101653AB1CF
:1008500001630161016010BD0166F6E74165F6E7DD
:100860004163F6E7430903F5001303F207735B02E4
:1008700000F01F00012202FA00F0186370474309DC
:1008800003F5001303F207735B0200F01F0001225F
:1008900002FA00F05863704773B5044640090D46EC
:1008A00000F5001001F0F04100F20770B1F1005FB7
:1008B0004FEA40201ED00CD8B1F1805F1AD0B1F1C0
:1008C000C05F17D0B1F1006F14D00026304602B0DF
:1008D00070BD05F0E043B3F1405F19D0B1F1205F86
:1008E000F3D104F01F040126134B2A4606FA04F143
:1008F0009847EBE704F01F02012404FA02F20F4BC1
:10090000984715EA040612BF426602662646DDE7EE
:1009100005F06052012602F1484105EA06034A4209
:1009200004F01F0400934A41C5F3800306FA04F162
:10093000034CA047CAE700BF15084000A7074000C6
:100940004108400010B52C4A2C4B116B01F00301FB
:1009500001292AD0023901291DD8116ACC0148D4B5
:1009600027491960116A01F0700110293ED0202931
:100970003FD0106B196800F0030002280BBF946A87
:10098000D46A906AD06AC4F30A4404FB0111C0B26D
:10099000B1FBF0F107E01B49496A08064CBF4FF470
:1009A00000414FF4FA4119600DE0116AC90101D507
:1009B0001549F8E712491960116A01F07001102910
:1009C00012D02029F4D0106B196800F07000702844
:1009D0001BBF126BC2F30212032221FA02F208BFFC
:1009E000B1FBF2F21A6010BD0849DCE70749196053
:1009F000BFE70549FBE700BF00040E4000000020F0
:100A000000093D0000140E40001BB70000127A00E0
:100A10000E4B98420E4B03D84FF080621A6070471D
:100A20000C4A904201D20C4AF8E70C4A904201D29B
:100A30000B4AF3E70B4A904201D80B4AEEE70B4A08
:100A400090428CBF0A4A4FF00422E7E7FF2C3101A5
:100A5000000A0E40005A620200010004008793035E
:100A600000020004FFB3C40400030004FFE0F50526
:100A7000000500040E4B1A6B22F003021A6340F6C5
:100A80000102996E09070BD51A6B22F07002104310
:100A9000186340F60102996E090705D500207047DA
:100AA000013AEED101207047013AF4D1FAE700BFD4
:100AB00000040E400F490A6A42F45C1242F0080238
:100AC0000A628B6E9A03FCD50B6A23F45C1323F045
:100AD0007003034343F45C130B628B6E9B03FCD5E2
:100AE0000B6A23F09B7323F4803343F45C130B6293
:100AF000704700BF00040E40222818D81F280D4A56
:100B00004FF0010308D8916903FA00F030EA0103BD
:100B100000D0106100207047D2F80811203803FA85
:100B200000F030EA0103F5D0C2F80001F2E701203D
:100B3000704700BF00040E4000F11003094A41F065
:100B4000020142F823104FF4807303FA00F040F6DC
:100B50000103916E014201D000207047013BF8D1A2
:100B60000120704700040E40024A4FF48073834016
:100B70001360704700040E40034B18B1034AC3F8DA
:100B8000E4207047024AFAE700040E4001434D504A
:100B900000434D5073B5274B274A1B6803F11001E2
:100BA000187810705878507098789070D878D07005
:100BB00004338B4202F10402F2D1204B2048214C35
:100BC00004211A6801928D0714D1C2F30746C2F3BB
:100BD0000725865D8DF80560160ED2B2455D825CF4
:100BE0008DF807208A08865DA25C8DF806606A4051
:100BF0008DF8042013F80C2C9DF804506A401A71EB
:100C00009DF8055013F80B2C6A405A719DF8065058
:100C100013F80A2C6A409A719DF8075013F8092CB2
:100C200001316A402C29DA7103F10403C9D102B001
:100C300070BD00BFF0010020F40100200002002080
:100C40000F00002004000020F0B50B4B0B4E19687C
:100C500000010A1D1431131F35181C7815F8017B8B
:100C60007C4003F8014B9342F7D11A1D8A4200F1F0
:100C70000400F0D1F0BD00BFB4020020F401002058
:100C800010B5084B08481B68191D002213F82240B4
:100C9000045D03F822400132042AF7D101338B426C
:100CA000F3D110BDB40200200F0000200D4B1B68D3
:100CB00059795A785970597A5971597B5972997A78
:100CC0005A739A789970997B9A729A799971D97BAB
:100CD0009A73DA78D970D97AD973D979D972DA71E5
:100CE000704700BFB4020020C30903EB430303EBCA
:100CF000C30383EA4000C0B2704700002DE9F04F03
:100D000085B0244DDFF89090DFF890800020A84750
:100D100001240195C847C047214BDFF888A01A6815
:100D200002F11003029392F800B055789178D778C9
:100D30008BEA050081EA070383EA00060393D047A4
:100D40008BEA00007040107085EA0100D047039BD9
:100D50004540754055701846D047414071409170EC
:100D60008BEA0700D0474740029B7E40D670043292
:100D70009342D8D120460134019BE4B298470A2C13
:100D8000C8D1054B9847C047019B204605B0BDE838
:100D9000F04F1847490C4000810C4000AD0C40005A
:100DA000B4020020E90C40004B1E01380F3113F84B
:100DB000012F00F8012F8B42F9D17047014B1860C9
:100DC000014B1847F0010020950B400010B5054B72
:100DD00001461860044B05489847BDE81040044B95
:100DE000184700BFB4020020A90D4000A402002053
:100DF000FD0C400070470000004B1847BD0D40003F
:100E0000004B1847CD0D40007047704770470000F9
:100E100070B50D4D0D4C641BA4100026A64209D1DF
:100E20000B4D0C4C00F038F8641BA4100026A642B1
:100E300005D170BD55F8043B98470136EEE755F8EB
:100E4000043B98470136F2E7A40E4000A40E400090
:100E5000A40E4000A80E40000A44914200F1FF3366
:100E600000D1704710B511F8014B03F8014F9142C2
:100E7000F9D110BD02440346934200D1704703F8F4
:100E8000011BF9E72B7E151628AED2A6ABF7158805
:100E900009CF4F3C00000000F8B500BFF8BC08BC0B
:100EA0009E467047F1004000F8B500BFF8BC08BC92
:080EB0009E467047CD00400092
:100EB80000093D008D01020408102040801B3663A4
:100EC8007C777BF26B6FC53001672BFED7AB76CA98
:100ED80082C97DFA5947F0ADD4A2AF9CA472C0B7BD
:100EE800FD9326363FF7CC34A5E5F171D8311504CA
:100EF800C723C31896059A071280E2EB27B2750933
:100F0800832C1A1B6E5AA0523BD6B329E32F845365
:100F1800D100ED20FCB15B6ACBBE394A4C58CFD02A
:100F2800EFAAFB434D338545F9027F503C9FA851FA
:100F3800A3408F929D38F5BCB6DA2110FFF3D2CDCD
:100F48000C13EC5F974417C4A77E3D645D1973606A
:100F5800814FDC222A908846EEB814DE5E0BDBE077
:100F6800323A0A4906245CC2D3AC629195E479E727
:100F7800C8376D8DD54EA96C56F4EA657AAE08BAB5
:100F880078252E1CA6B4C6E8DD741F4BBD8B8A706D
:100F98003EB5664803F60E613557B986C11D9EE118
:100FA800F8981169D98E949B1E87E9CE5528DF8C55
:100FB800A1890DBFE6426841992D0FB054BB1600B8
:04000005004004E1D2
:00000001FF
